:100000000C94B7020C94D4020C94D4020C94D40235
:100010000C94D4020C94D4020C94D4020C94D40208
:100020000C94D4020C94D4020C94D4020C94D402F8
:100030000C94D4020C94D4020C94D4020C94D402E8
:100040000C94D4020C94D4020C94D4020C94D402D8
:100050000C94D4020C94D4020C94D4020C944E064A
:100060000C94D4020C94D4020C94D4020C94D402B8
:100070000C94D4020C94D4020C94D4020C94D402A8
:100080000C94D4020C94D4020C94D4020C94D40298
:100090000C94D4020C94D4020C94D4020C94D40288
:1000A0000C94D4020C94D4020C94D40200000000EE
:1000B0000004040400040A0A000000050F050F05EF
:1000C000070C06050E000902040906080D0A0504BE
:1000D0000400000002040804020402010204000AF1
:1000E000040A0000040E0400000000040800000ED2
:1000F00000000000000004000102040806090B0DC6
:10010000060C0404040E060902040F06010201068F
:1001100009090F01010E080E010E06080E09060F4F
:10012000010204080609060906060907010600047B
:1001300000040000040004080204080402000F0088
:100140000F00040201020406090200020E0A0A0856
:100150000F06090F09090C0A0E090E060808080601
:100160000E0909090E0E080C080E0E080E08080FDD
:10017000080B090F0A0A0E0A0A0E0404040E0702ED
:10018000020A04090A0C0A09080808080E0A0E0ADD
:100190000A0A090D0B090906090909060E090E08C4
:1001A0000806090D0A050E090E0A09070806010EC0
:1001B0000E0404040409090909060A0A0A0A040AC1
:1001C0000A0A0E0A0A0A040A0A0A0A0404040F02A6
:1001D00004080F0C0808080C0008040201030101C0
:1001E00001030205000000000000000F08040000E9
:1001F0000006090F09090C0A0E090E060808080670
:100200000E0909090E0E080C080E0E080E08080F3C
:10021000080B090F0A0A0E0A0A0E0404040E07024C
:10022000020A04090A0C0A09080808080E0A0E0A3C
:100230000A0A090D0B090906090909060E090E0823
:100240000806090D0A050E090E0A09070806010E1F
:100250000E0404040409090909060A0A0A0A040A20
:100260000A0A0E0A0A0A040A0A0A0A0404040F0205
:1002700004080F060408040604040404040602012A
:10028000020600050A0000060609090F6E616E00ED
:10029000696E6600000000000000005F00000007BB
:1002A000000700147F147F14242A7F2A12231308C6
:1002B000646236495522500005030000001C2241AB
:1002C000000041221C0014083E081408083E0808DB
:1002D0000050300000080808080800606000002096
:1002E000100804023E5149453E00427F40004261F1
:1002F0005149462141454B311814127F102745457D
:1003000045393C4A49493001710905033649494993
:1003100036064949291E00363600000056360000D0
:100320000814224100141414141400412214080269
:1003300001510906324979413E7E1111117E7F49F2
:100340004949363E414141227F4141221C7F494972
:1003500049417F090909013E4149497A7F08080856
:100360007F00417F41002040413F017F081422412E
:100370007F404040407F020C027F7F0408107F3E98
:100380004141413E7F090909063E4151215E7F09F5
:10039000192946464949493101017F01013F404041
:1003A000403F1F2040201F3F4038403F6314081447
:1003B0006307087008076151494543007F414100C8
:1003C00002040810200041417F00040201020440A1
:1003D00040404040000102040020545454787F48BB
:1003E0004444383844444420384444487F385454C2
:1003F0005418087E0901020C5252523E7F08040430
:100400007800447D40002040443D007F1028440097
:1004100000417F40007C041804787C08040478388C
:10042000444444387C14141408081414187C7C08C0
:100430000404084854545420043F4440203C4040A5
:10044000207C1C2040201C3C4030403C442810288C
:10045000440C5050503C4464544C44000836410015
:1004600000007F00000041360800100808100878DE
:100470004641467800407A10F35A00A0724E18099F
:100480000010A5D4E80000E87648170000E40B54FB
:10049000020000CA9A3B000000E1F50500008096CA
:1004A0009800000040420F000000A08601000000FC
:1004B000102700000000E8030000000064000000B6
:1004C00000000A00000000000100000000002C767F
:1004D000D888DC674F0823DFC1DFAE59E1B1B7969A
:1004E000E5E3E453C63AE651997696E8E6C28426F7
:1004F000EB898C9B62ED407C6FFCEFBC9C9F40F2D3
:10050000BAA56FA5F490055A2AF75C936B6CF9674E
:100510006DC11BFCE0E40D47FEF520E6B500D0ED13
:10052000902E0300943577050080841E080000207B
:100530004E0A000000C80C333333330F986E128319
:100540001141EF8D2114893BE65516CFFEE6DB18ED
:10055000D1844B381BF77C1D901DA4BBE4242032B2
:1005600084725E228100C9F124ECA1E53D271124AB
:100570001FBECFEFDAE0DEBFCDBF11E0A0E0B1E0FB
:10058000EAEFF2E302C005900D92A634B107D9F765
:1005900017E0A6E4B1E001C01D92A63FB107E1F764
:1005A0000E9486070C947B190C9400008FE30E9434
:1005B0002B1380B38F7980BB8AB18C7F8AB984B1C9
:1005C0008D7784B914BC85B5846085BDEEE6F0E016
:1005D0008081816080837894089580E480937C009A
:1005E00086E880937A00089590917C008770987FC8
:1005F000892B80937C0080917A00806480937A00BC
:1006000080917A0086FDFCCF8091780090917900EE
:1006100008952F923F924F925F926F927F928F92A6
:100620009F92AF92BF92CF92DF92EF92FF920F9381
:100630001F93CF93DF93CDB7DEB760970FB6F894D3
:10064000DEBF0FBECDBF48E151E061E188E10E940D
:10065000F61240E251E069E188E10E94F6128091D1
:100660000D0190910E019F938F9387E291E09F93EC
:100670008F938E010F5F1F4F1F930F930E94A61839
:10068000A80169E186E30E94F6128091F8030F90B9
:100690000F900F900F900F900F90813009F004C1D0
:1006A00080934C0184EA92E09C878B87812C912C6B
:1006B00080910D0190910E01019731F080910D0113
:1006C00090910E01029761F4EB85FC85E80DF91D10
:1006D00080E090E0A0E8BFEB80879187A287B38796
:1006E00080910D0190910E010397B9F180910D0158
:1006F00090910E01019709F4C5C00E94ED0220916E
:10070000650130916601ACE4B0E00E94B6160E942B
:100710004C152091090130910A0140910B01509133
:100720000C010E94B11460935001709351018093A9
:10073000520190935301EB85FC85E80DF91D80E093
:1007400090E0A0E8BFE384879587A687B7871E86D9
:100750001D8641E1242E312C91C004EA12E00E9452
:10076000701762E070E00E94C516612C712C6C015C
:10077000C094D094EE24D7FCE094FE2C2801460CC3
:10078000571CC701B6010E944C15D20118966D93F3
:100790007D938D939C931B97B5E16B0E711CE9E6DD
:1007A0006E16710459F707591F4FF3E00F3D1F07ED
:1007B000B1F69CCFB201882777FD8095982F0E94D3
:1007C0004C15AB01BC018D859E85860D971D30E0D3
:1007D000A32E31E0B32ECC24C394EE24E39400E0A6
:1007E00010E020E132E480509C4F0E947413EFEF40
:1007F0004E1A5E0AF5E16F0E711C24E56216710453
:10080000C9F62101612C712C8D859E858C5A9F4FD4
:10081000988B8F87B201882777FD8095982F0E944B
:100820004C15AB01BC018F859889860D971D20E082
:10083000A22E21E0B22ECC24C394EE24E39400E057
:1008400010E024E132E480509C4F0E9474139FEF2B
:10085000491A590AA5E16A0E711CB4E56B167104B8
:10086000C9F696E1290E311CAD85BE85A855BF4F4E
:10087000BE87AD87B5E92B16310421F02101612C2B
:10088000712C98CFE5E18E0E911CF9E68F1691043C
:1008900009F00ECF8B859C8587599F4F9C878B874E
:1008A0008F5D934009F002CF60960FB6F894DEBFDB
:1008B0000FBECDBFDF91CF911F910F91FF90EF90B1
:1008C000DF90CF90BF90AF909F908F907F906F9070
:1008D0005F904F903F902F900895EF92FF920F936B
:1008E0001F93CF93DF93CDB7DEB76E970FB6F89413
:1008F000DEBF0FBECDBF4AE251E061E081E00E9461
:100900002D0780914F018F9380914E018F9307E2C5
:1009100011E01F930F937E0185E1E80EF11CFF9219
:10092000EF920E94A618A70161E089E10E942D07BD
:1009300041E351E061E083E20E942D0780910F01C5
:10094000909110019F938F931F930F937E019BE0D3
:10095000E90EF11CFF92EF920E94A618A70161E038
:1009600087E30E942D0747E351E061E080E40E94A5
:100970002D0780910D0190910E019F938F931F93EE
:100980000F938E010F5F1F4F1F930F930E94A618A6
:10099000A80161E08CE40E942D070FB6F894DEBF39
:1009A0000FBECDBF6E960FB6F894DEBF0FBECDBFA3
:1009B000DF91CF911F910F91FF90EF9008953F929B
:1009C0004F925F926F927F928F929F92AF92BF925F
:1009D000CF92DF92EF92FF920F931F93CF93DF930B
:1009E000CDB7DEB72E970FB6F894DEBF0FBECDBFE2
:1009F00080910D0190910E01019709F4AFC0C09054
:100A00004A01D0904B018091E3039091E403A091BF
:100A1000E503B091E6038D839E83AF83B887809111
:100A2000DF039091E003A091E103B091E203898795
:100A30009A87AB87BC873090F1038090EB0390904E
:100A4000EC03A090ED03B090EE03A7E6B1E0BE8703
:100A5000AD87AD85BE8514968D919D910D90BC910D
:100A6000A02D89839A83AB83BC8380E0E82E84E049
:100A7000F82E02E114E0F70144805580668077800B
:100A8000A301920169817A818B819C810E94AD14BE
:100A900081111EC0D7012D913D914D915C91ED8545
:100AA000FE8560817181828193810E94AD148111E4
:100AB0000FC0D8018C91813059F41C92ED85FE85D0
:100AC0001486158616861786128AFFEFCF1ADF0A5C
:100AD000A30192016D817E818F8198850E94AD1462
:100AE00081111AC0D7012D913D914D915C9169857D
:100AF0007A858B859C850E94AD1481110DC0F8010B
:100B00008081813049F4F1E03F1206C0D8011C9287
:100B1000812C912C5401312CB5E1EB0EF11C0B5EB4
:100B20001F4FE8EFEE16E5E0FE0609F0A4CF8D8535
:100B30009E8545969E878D87825A924009F089CF7F
:100B4000D0924B01C0924A013092F1038092EB03A4
:100B50009092EC03A092ED03B092EE032E960FB6A6
:100B6000F894DEBF0FBECDBFDF91CF911F910F91E3
:100B7000FF90EF90DF90CF90BF90AF909F908F90BD
:100B80007F906F905F904F903F9008954F925F924B
:100B90006F927F928F929F92AF92BF92CF92DF928D
:100BA000EF92FF92CF93DF93C090A402D090A50262
:100BB000E090A602F090A70220E030E040E85FE37A
:100BC000C701B6010E94AD148823B1F020E030E0E7
:100BD00040E051E46091CA037091CB038091CC0353
:100BE0009091CD030E94361420E030E046EA52E4B2
:100BF0000E94AD14811143C080910D0190910E01AE
:100C00000397E9F120E030E040E051E46091CA034D
:100C10007091CB038091CC039091CD030E94361448
:100C20004B015C01C4EAD2E0412C512C80E8682ED3
:100C30008FEB782E20E030E040E85FE3C701B6019B
:100C40000E94AD14811108C080E090E0A0E8BFE3ED
:100C500088879987AA87BB8720E030E046EA52E47C
:100C6000C501B4010E94AD14811104C048865986A3
:100C70006A867B86659683E0CF3DD807D9F6DF91FB
:100C8000CF91FF90EF90DF90CF90BF90AF909F906B
:100C90008F907F906F905F904F9008951F920F926A
:100CA0000FB60F9211242F933F934F935F936F933F
:100CB0007F938F939F93EF93FF939091FA0383B168
:100CC000990F8270892B8093FA039091FB0389B16D
:100CD000990F8170892B8093FB039091FC0389B15C
:100CE000990F8270892B8093FC039091FD0383B14F
:100CF000990F8078892B8093FD039091FE038FB12B
:100D0000990F8074892B8093FE039091FF038FB11C
:100D1000990F8072892B8093FF0340914C0180E0F2
:100D200090E051E061E070E0FC01E650FC4F208172
:100D3000211124C0FC01EC50FC4F20812130E1F452
:100D400041111AC02091F9032130B1F420910D0115
:100D500030910E012330310559F020910D01309171
:100D60000E012F5F3F4F30930E0120930D0104C001
:100D700070930E0160930D01108207C02081222321
:100D800021F0FC01EC50FC4F508301968630910518
:100D900059F6FF91EF919F918F917F916F915F91A4
:100DA0004F913F912F910F900FBE0F901F9018956C
:100DB0006F927F929F92AF92BF92CF92DF92EF920B
:100DC000FF920F931F93DF93CF930F92CDB7DEB7B0
:100DD000E82E962E85E04802A00111249E2D9C5FEE
:100DE00000E010E02CE0A22E20E0B22EA40EB51EF2
:100DF00081E1C82E80E0D82EC40ED51E1CC0F301A0
:100E0000449150E0002E02C0559547950A94E2F7B0
:100E10004170892F6F2D99830E943E110894611CA7
:100E2000711CF39499816C147D0449F70F5F1F4F77
:100E300091509E1519F03501F92CE1CF0F90CF910B
:100E4000DF911F910F91FF90EF90DF90CF90BF90B7
:100E5000AF909F907F906F9008950F931F93CF93C3
:100E6000DF93182F062FEA0106C0812F602F0E9402
:100E7000D80621961C5F48814423B9F7DF91CF91B2
:100E80001F910F910895EF92FF920F931F93DF939D
:100E9000CF93CDB7DEB7C456D0400FB6F894DEBFBF
:100EA0000FBECDBFF82EE62E00D000D000D0EDB79B
:100EB000FEB731968E010F5F1F4FADB7BEB71296CA
:100EC0001C930E93119781E191E093838283558364
:100ED00044830E94A6188DB79EB706960FB6F89465
:100EE0009EBF0FBE8DBF8F2D6E2DA8010E942D07B6
:100EF000CC59DF4F0FB6F894DEBF0FBECDBFCF91F8
:100F0000DF911F910F91FF90EF9008952F923F92E4
:100F10004F925F926F927F928F929F92AF92BF9209
:100F2000CF92DF92EF92FF920F931F93CF93DF93B5
:100F3000CDB7DEB7A2970FB6F894DEBF0FBECDBF18
:100F400080E88093610081E08093610086E0A82EB4
:100F500081E0B82E93E0C92E28E0E22E00E010E0F8
:100F600020E332E440E050E068E172E480E591E0A3
:100F70000E94741327E631E03A83298338E0832EF8
:100F8000912CB401882777FD8095982F0E944C15ED
:100F90002B013C01A981BA81BE8BAD8B1E821D82C3
:100FA000F6E02F2E312CFD01E756F140FA8BE98B4C
:100FB000C40104969C01442737FD4095542F2D878A
:100FC0003E874F87588BB101882777FD8095982FF2
:100FD0000E944C15AB01BC018D819E81A989BA8903
:100FE0008A0F9B1FA2E0AA2EA1E0BA2EB4E0CB2E5E
:100FF00018E0E12E930182018C559D4F0E947413DD
:101000006D857E858F8598890E944C1569877A87C2
:101010008B879C87B1016C5F7F4F882777FD809518
:10102000982F0E944C15AB01BC0101E0A02E01E0FD
:10103000B02ECC24C394EE24E39409851A852B8525
:101040003C858D899E890E94741320E030E040E841
:101050005FE3ED89FE8964857585868597850E94A5
:101060003614AD89BE891C966D937D938D939C93A8
:101070001F97B0E12B0E311CED81FE817596FE832A
:10108000ED832D893E892B5E3F4F3E8B2D8B36E5C0
:101090002316310409F097CF47E0840E911C898113
:1010A0009A8187599F4F9A8389839DE1891691047C
:1010B00009F067CF0E94D60280914D0181112CC5A5
:1010C0000E94361180914C01811102C00E940903D7
:1010D00080914C01882309F413C50E9436110E94A7
:1010E0006D0404EA12E0D80118962D913D914D91BE
:1010F0005C911B976D917D918D919C910E9436140E
:10110000F801608371838283938380910D019091B4
:101110000E01019789F024853585468557856481C0
:101120007581868197810E943614D80114966D933B
:101130007D938D939C9317970B5E1F4FB3E00F3DEC
:101140001B0789F60E94DF040E94C60580E00E940A
:10115000F4029093F9058093F80581E00E94F4026F
:10116000909366018093650120910D0130910E01ED
:1011700022303105E9F49C01ACE4B0E00E94B616DF
:101180000E944C152091090130910A0140910B01F8
:1011900050910C010E94B1140E9419150E944C1527
:1011A00060935001709351018093520190935301C9
:1011B00080910D0190910E01039709F05AC020E033
:1011C00030E040EE51E46091E3037091E4038091DC
:1011D000E5039091E6030E94AD1481114AC080910D
:1011E000F8059091F9058130E1E09E0760F440E058
:1011F00050E060E070EC4093E7035093E8036093A5
:10120000E9037093EA039C01215031402F3F3105DF
:1012100009F060F420E030E040E85FEB2093E70362
:101220003093E8034093E9035093EA039C01215073
:1012300032402F3F310509F068F480E090E0A0E8EB
:10124000BFE38093E7039093E803A093E903B0938F
:10125000EA030FC08130934060F020E030E040E0CE
:1012600050E42093E7033093E8034093E90350935D
:10127000EA038091F803813041F5C0905001D0908D
:101280005101E0905201F090530120E030E040E83D
:101290005FE3C701B6010E944F161816B4F480919F
:1012A0000D0190910E01019781F420E030E040E8BB
:1012B0005FE3C701B6010E9435146093500170933B
:1012C000510180935201909353018091F903813031
:1012D00041F5C0905001D0905101E0905201F09042
:1012E000530120E030E046E952E4C701B6010E9414
:1012F000AD1487FF16C080910D0190910E010197EA
:1013000081F420E030E040E85FE3C701B6010E94CD
:101310003614609350017093510180935201909361
:1013200053018091F403813041F5C0905001D09079
:101330005101E0905201F090530120E030E040E88C
:101340005FE3C701B6010E944F161816B4F48091EE
:101350000D0190910E01039781F420E030E040E808
:101360005FE3C701B6010E9435146093500170938A
:10137000510180935201909353018091F503813084
:1013800041F5C0905001D0905101E0905201F09091
:10139000530120E030E046E952E4C701B6010E9463
:1013A000AD1487FF16C080910D0190910E01039737
:1013B00081F420E030E040E85FE3C701B6010E941D
:1013C00036146093500170935101809352019093B1
:1013D000530180914D01811138C08091F603813015
:1013E000A1F58091F103811130C08091F403811146
:1013F0002CC020E030E040E850E460915001709152
:10140000510180915201909153010E943614AB0119
:10141000BC01E1E0AE2EE1E0BE2ECC24C394EE246C
:10142000E39400E010E020E332E48FED93E00E94CB
:10143000741380E090E0A0E8BFEB8093EB039093FF
:10144000EC03A093ED03B093EE038FED93E00E94C5
:1014500098132091E3033091E4034091E503509108
:10146000E603298B3A8B4B8B5C8B8091DF03909149
:10147000E003A091E103B091E2038D8B9E8BAF8BD3
:10148000B88F9091F1039D83A0904E01B0904F01D1
:101490002091EB033091EC034091ED035091EE036A
:1014A00029873A874B875C87809154019091550139
:1014B000A0915601B0915701898F9A8FAB8FBC8F45
:1014C00020915001309151014091520150915301AE
:1014D0002D8F3E8F4F8F58A340914A0150914B0161
:1014E0005AA349A337E6432E31E0532E84EA92E013
:1014F0009A838983212C312CA981BA8114962D914C
:101500003D914D915C9117972D873E874F87588B62
:1015100000E010E0F101EC55FD4F6F01B8018827A4
:1015200077FD8095982F0E944C159B01AC016D852D
:101530007E858F8598890E9436143B014C01E12CF1
:10154000F12CA401930169897A898B899C890E9475
:10155000AD14811137C0B701882777FD8095982F8A
:101560000E944C15A981BA812D913D914D915C91BC
:101570000E9436149B01AC016D897E898F89988DFC
:101580000E94AD1481111EC0F60182898130D1F410
:10159000FD81F130B9F42FEFA21AB20AD6015296AA
:1015A0001C9280910D0190910E01029731F4E98116
:1015B000FA81148615861686178619861A861B8662
:1015C0001C861D82FFEFEF1AFF0A28E0E216F104E5
:1015D00009F0B7CF0F5F1F4F0430110509F09ECF00
:1015E000D2011496CD90DD90ED90FC901797612C70
:1015F000712C810109591E4FB301882777FD809511
:10160000982F0E944C159B01AC01698D7A8D8B8DB2
:101610009C8D0E9436146D877E878F87988B812CD6
:10162000912C2D853E854F855889C701B6010E94B2
:10163000AD14811130C0B401882777FD8095982FB3
:101640000E944C159B01AC016D8D7E8D8F8D98A1F4
:101650000E9436149B01AC01F2016081718182818C
:1016600093810E94AD14811116C0D80152968C91BD
:101670005297813081F480910F0190911001019770
:101680009093100180930F0152961C92E9A1FAA148
:101690003196FAA3E9A3FFEF8F1A9F0A28E082167A
:1016A000910409F0BECF3FEF631A730A43E064165A
:1016B000710409F0A1CF20E030E040E452E4C7011A
:1016C000B6010E94AD14811119C020E030E0A901DB
:1016D000D2011C966D917D918D919C911F970E94D6
:1016E000AD14882359F0F2011486158616861786E4
:1016F00029A13AA12F5F3F4F3AA329A38FE090E0A1
:101700008A199B0949A15AA14817590791F055E137
:10171000250E311C89819A8145969A83898395E1AA
:10172000490E511CABE32A16A1E03A0609F0E4CEBB
:1017300052C097E6E92E91E0F92E24EAC22E22E06B
:10174000D22E00E010E0F801EC55FD4F9288B1E098
:101750009B1233C020E030E040E450E4F6016081A9
:101760007181828193810E943614D7016D937D939C
:101770008D939C93139720E030E040E450E4F60111
:1017800064817581868197810E943614D7011496F1
:101790006D937D938D939C93179720E030E040E804
:1017A0005FE31C962D933D934D935C931F97F80137
:1017B000E959FE4F928A1AA219A20B5E1F4FB5E19A
:1017C000CB0ED11CE5E1EE0EF11C0B33F1E01F074F
:1017D00009F0B9CF9CCF29A13AA130934B012093B6
:1017E0004A013D813093F103B0924F01A0924E0126
:1017F00089859A85AB85BC858093EB039093EC0338
:10180000A093ED03B093EE0380910D0190910E0132
:101810000197E9F4C090E303D090E403E090E5037E
:10182000F090E60320E030E040EE50E4C701B6015E
:101830000E94AD148111D8C01092F1031092EB03F5
:101840001092EC031092ED031092EE03CDC0A4EAC7
:10185000B2E0BA87A98782E0A82EB12C0E94701747
:10186000B5010E94C5166C01BFEFCB1ADB0A2091AF
:10187000CE033091CF034091D0035091D1032983FF
:101880003A834B835C838091A8029091A902A09136
:10189000AA02B091AB028D839E83AF83B88700E02C
:1018A00010E029843A8494E5290E311C44245524FF
:1018B0004C185D08662457FC6094762CEE24D7FC07
:1018C000E094FE2C80910D0190910E010397D9F5C3
:1018D00020E030E040E85FE3A985BA856D917D9115
:1018E0008D919C910E94AD1418166CF089849A8495
:1018F000800E911EC701B6010E944C15F40160874D
:1019000071878287938720E030E040E051E4D10185
:101910006D917D918D919C910E94361420E030E074
:1019200046EA52E40E944F1687FD0DC089849A84CE
:10193000800E911EC301B2010E944C15F401608714
:1019400071878287938780910D0190910E01019795
:1019500039F40B5E1F4F0936110509F0B3CF39C0BA
:1019600020E030E040EE51E469817A818B819C81F6
:101970000E94AD14882379F020E030E040E051E48B
:101980006D817E818F8198850E94AD148111E1CF98
:10199000E4EAF2E010C0E4EAF2E020E030E040E8FF
:1019A0005FEB2487358746875787759633E0EF3D91
:1019B000F30799F7E1CF80E090E0A0E8BFE38487E8
:1019C0009587A687B787759693E0EF3DF90799F756
:1019D000C0CFA985BA85A759BF4FBA87A987AF5D80
:1019E000B34009F03BCF16CF80914E0190914F014B
:1019F0000F9731F080910F0190911001892B19F40C
:101A000081E080934D012091EB033091EC034091F4
:101A1000ED035091EE03C701B6010E9436146093A6
:101A2000E3037093E4038093E5039093E6038091CE
:101A30000D0190910E010397D1F42091E7033091AD
:101A4000E8034091E9035091EA036091DF0370914C
:101A5000E0038091E1039091E2030E9436146093C9
:101A6000DF037093E0038093E1039093E20307E6C2
:101A700011E0D8011C962D913D914D915C911F97DD
:101A800014966D917D918D919C9117970E943614BB
:101A9000F80164837583868397830B5E1F4FF2E0A2
:101AA000023A1F0731F780E591E00E94981300E0A9
:101AB00010E0C8018C559D4F0E949813C8018959A8
:101AC0009E4F0E9498130B5E1F4F0B3321E01207AD
:101AD00081F700E014E0C8010E9498130B5E1F4FCD
:101AE00035E0083F1307B9F780914D01882341F095
:101AF0000E9436114BE351E065E184E10E94F61249
:101B00000E9423114FE758E381E04150504080404C
:101B1000E1F700C00000D0CA80E090E0A2960FB6C6
:101B2000F894DEBF0FBECDBFDF91CF911F910F9113
:101B3000FF90EF90DF90CF90BF90AF909F908F90ED
:101B40007F906F905F904F903F902F900895A3E10A
:101B5000B0E0EDEAFDE00C94D9166C014B012A01CE
:101B6000FC0117821682838181FF43C3AE014F5F60
:101B70005F4F3A01F6019381F40193FD859193FF44
:101B800081914F01882309F430C3853239F493FDE4
:101B9000859193FF81914F01853239F4B60190E030
:101BA0000E946E1852012501E5CF10E0F12C20E0D3
:101BB0002032A0F48B3269F030F4803259F0833255
:101BC00069F420612CC08D3239F0803339F4216002
:101BD00026C02260246023C0286021C027FD27C0C2
:101BE00030ED380F3A3078F426FF06C0FAE01F9F38
:101BF000300D1124132F13C04AE0F49E300D112430
:101C0000F32E20620CC08E3221F426FDEEC2206439
:101C100006C08C3611F4206802C0883641F4F40105
:101C200093FD859193FF81914F018111C1CF9BEB72
:101C3000980F933018F42061805E06C09BE9980FDE
:101C4000933008F071C12F7E26FF16E02F73322EDD
:101C5000853619F42064322E08C0863621F4F22F1E
:101C6000F0683F2E02C01111115037FE07C01C331F
:101C700050F4EE24E394E10E27E00BC0183038F066
:101C800027E017E005C027E04CE3E42E02C0212F37
:101C9000E12C520144E0A40EB11CF201608171817B
:101CA000828193810E2DA3010E9480172C0109814E
:101CB00000FF02C003FF07C031FC08C032FE09C0AC
:101CC00030E2232E07C02DE2222E04C09BE2292EF3
:101CD00001C0212C802F8C7019F0211068C2A8C27D
:101CE00037FE0FC0E40C04FF04C08A81813309F47D
:101CF000EA941E1474F5F8E0FE1578F588E0E82EF5
:101D00002CC036FC2AC0812F90E0841595059CF0EC
:101D10002CEF42162FEF520674F0432D4068342EFC
:101D20000AC0E2E0F0E0EC0FFD1FE10FF11D808141
:101D3000803319F411501111F4CF37FE0EC0EE2488
:101D4000E394E10E812F90E0481659062CF4141903
:101D500004C0EE24E39401C010E037FE06C0141462
:101D6000150434F4C201019605C085E090E002C07C
:101D700081E090E021100196112331F0212F30E015
:101D80002F5F3F4F820F931F2F2D30E08217930755
:101D900014F4F81A01C0F12C832D897049F4FF2046
:101DA00039F0B60180E290E00E946E18FA94F7CF05
:101DB000222029F0B601822D90E00E946E1833FC9B
:101DC00009C0FF2039F0B60180E390E00E946E1850
:101DD000FA94F7CF37FE5AC0942D852D57FE02C0D6
:101DE00090E080E0292E382E20E030E0A2014E194C
:101DF00051095D874C87A201421953095F874E87BD
:101E0000612F70E044275527461B570B598B488B91
:101E10005FEF2516350649F4B6018EE290E02A8B75
:101E20003B8B0E946E183B892A89421453046CF044
:101E30004C855D854215530544F4EE85FF85E20F20
:101E4000F31FE60DF71D818101C080E351E0251AE3
:101E500031082F5F3F4F48895989241635064CF0C9
:101E6000B60190E02A8B3B8B0E946E182A893B8931
:101E7000CFCF2414350439F49A81963318F495336E
:101E800011F404FF81E3B60190E04BC08A818133F5
:101E900009F00F7EB60190E00E946E18111105C086
:101EA00034FC18C085E690E017C0B6018EE290E0E1
:101EB0000E946E1882E0EE24E394E80EF301E80F2E
:101EC000F11D8081B60190E00E946E1811508E2D98
:101ED00091F7E6CF85E490E0B6010E946E1857FCBA
:101EE00005C04114510439F404FF05C051944194D4
:101EF00051088DE201C08BE2B60190E00E946E189D
:101F000080E39AE0491651042CF08F5F5AE0451A9D
:101F10005108F7CFB60190E00E946E18B601C201D9
:101F2000C0960E946E1857C1833631F0833779F01E
:101F3000833509F058C021C05201E2E0AE0EB11C59
:101F4000F2018081898301E010E0230114C0520175
:101F5000F2E0AF0EB11CF2014080518026FF03C0B9
:101F6000612F70E002C06FEF7FEFC2012A8B0E94E9
:101F700063188C012A892F7715C05201F2E0AF0E49
:101F8000B11CF2014080518026FF03C0612F70E038
:101F900002C06FEF7FEFC2012A8B0E9458188C019C
:101FA0002A892068322E23FD1AC08F2D90E0081751
:101FB0001907A8F4B60180E290E00E946E18FA9426
:101FC000F4CFF20137FC859137FE81912F01B601E4
:101FD00090E00E946E18F110FA9401501109011559
:101FE000110579F7F8C0843611F0893659F5520198
:101FF00027FF09C0F4E0AF0EB11CF20160817181CE
:10200000828193810AC0F2E0AF0EB11CF2016081BF
:102010007181882777FD8095982F2F76322E97FF34
:1020200009C090958095709561957F4F8F4F9F4F18
:102030002068322E2AE030E0A3010E94C918E82E61
:10204000E6183FC0022F853721F40F7E2AE030E0EA
:102050001DC0097F8F3691F018F4883559F0C5C03E
:10206000803719F0883711F0C0C0006104FF09C043
:10207000046007C024FF08C0066006C028E030E006
:1020800005C020E130E002C020E132E0520107FF4C
:1020900009C0F4E0AF0EB11CF20160817181828150
:1020A000938108C0F2E0AF0EB11CF2016081718132
:1020B00080E090E0A3010E94C918E82EE6180F778F
:1020C000302E36FE0BC0332D3E7FE11650F434FE29
:1020D0000AC032FC08C0332D3E7E05C00E2D332DC4
:1020E00003C00E2D01C0012F34FF0CC0FE01EE0D08
:1020F000F11D8081803311F4397E08C032FF05C0A4
:102100000E5F04C0832F867809F00F5F33FD13C084
:1021100030FF06C01E2D0F1518F41F0D101B0F2DBC
:102120000F1568F4B60180E290E03B8B0E946E18B8
:102130000F5F3B89F5CF0F1510F4F01A01C0F12C99
:1021400034FF12C0B60180E390E03B8B0E946E1812
:102150003B8932FF17C031FD03C088E790E002C021
:1021600088E590E0B6010CC0832F867859F031FFE6
:1021700002C08BE201C080E237FD8DE2B60190E043
:102180000E946E18E11638F4B60180E390E00E94D8
:102190006E181150F7CFEA94F301EE0DF11D808116
:1021A000B60190E00E946E18E110F5CF14C0F4E083
:1021B000FF1558F584E0F81A33FE1EC0211026C022
:1021C00003FF2AC00CE812E0F32DF0713F2EF80156
:1021D0008491811124C0FF2009F4E5CCB60180E28E
:1021E00090E00E946E18FA94F6CFF60186819781EE
:1021F00026C08FEF9FEF23C0B60180E290E00E94DF
:102200006E18FA94F110F8CFD9CFF12CB601822DC7
:1022100090E00E946E18D4CF00E912E0D5CF3110C3
:102220008052B60190E00E946E180F5F1F4FCFCF13
:1022300023E02F1510F483E0BECFF12CC1CF6396BD
:10224000E2E10C94F516CF93DF9360E080E00E940A
:102250006813CEEFD5E0699181E00E940D1387E00D
:10226000C63FD807C1F7DF91CF910895EEEFF5E0B3
:10227000119287E0E63FF807D9F70895982F843543
:1022800008F56033F8F4862F8695869586956770F5
:1022900024E5829FF0011124892F90E08E0F9F1F6B
:1022A000FC01E250FA4F81E090E001C0880F6A958E
:1022B000EAF7442319F09081892B03C0809590811F
:1022C0008923808308952F923F924F925F926F925D
:1022D0007F928F929F92AF92BF92CF92DF92EF92B6
:1022E000FF920F931F93CF93DF93CDB7DEB72D9758
:1022F0000FB6F894DEBF0FBECDBFF82E262ED42E1B
:10230000E22E841320C0C62ED12C022F10E02E14F2
:1023100068F40C151D050CF4FBC041E06C2D8F2DED
:102320000E943E119FEFC91AD90AF1CFC016D106FB
:102330000CF4EEC041E06C2D8F2D0E943E11E1E0C7
:10234000CE1AD108E4CF082F10E0242F30E03D87CB
:102350002C876E111EC0FD1470F48C859D8580172E
:1023600091070CF4D5C041E0622D802F0E943E11F0
:102370000F5F1F4FF0CFEC85FD850E171F070CF484
:10238000C7C041E0622D802F0E943E11015011090B
:10239000E2CF6C857D85601B710B882777FD80956A
:1023A000982F0E944C152B013C012E2D30E03E83CE
:1023B0002D83312CB90162197309882777FD809527
:1023C000982F0E944C154B015C01A30192010E94C1
:1023D000B11469837A838B839C8320E030E0A90168
:1023E0000E944F1687FF0BC0A3019201C501B401E3
:1023F00090580E94B11469837A838B839C83C12C8B
:10240000D12C760120E030E0A901C301B2010E9485
:102410004F1618160CF076C02C853D852017310715
:102420000CF476C00B8741E0622D802F0E943E1194
:1024300029813A814B815C81C701B6010E94361423
:102440006B017C0120E030E040E05FE30E944F162A
:1024500087FF0DC020E030E0A901C301B2010E9456
:102460004F1618160CF04BC00F5F1F4FCBCF20E05C
:1024700030E0A901C501B4010E944F161816CCF531
:102480008D819E81821593052CF341E0622D8B8511
:102490000E943E1181E090E098878F8320E030E039
:1024A000A901C501B4010E944F16181614F0188630
:1024B0001F82E1E0F0E0FA87E98720E030E0A9013F
:1024C000C501B4010E94AD1487FD02C01A861986A9
:1024D0008F81988529853A85821B930B280E391E9A
:1024E00020E030E040E85FE3C701B6010E94351408
:1024F000A7CFED81FE812E163F063CF6ABCF0150F3
:10250000110980CF8C859D85081719070CF08ACF9B
:102510002D960FB6F894DEBF0FBECDBFDF91CF91E1
:102520001F910F91FF90EF90DF90CF90BF90AF90F1
:102530009F908F907F906F905F904F903F902F90E3
:1025400008957F928F929F92AF92BF92CF92DF9227
:10255000EF92FF920F931F93CF93DF93982E862EC7
:1025600025E0429F7001112400E010E030EAE31AF8
:10257000F108AA24A394B12CC701800F911F9C01DC
:102580002C563D4F6901C0E0D0E0792C700EC83068
:10259000D105C9F0F601449150E095010C2E02C01E
:1025A000220F331F0A94E2F7422353230C2E02C05A
:1025B000559547950A94E2F76C2F680D872D0E9478
:1025C0003E112196E4CF0F5F1F4F05301105A1F694
:1025D000DF91CF911F910F91FF90EF90DF90CF90FF
:1025E000BF90AF909F908F907F9008950F931F930F
:1025F000CF93DF93D62F8A01C82FF80141918F0125
:10260000442331F06D2F8C2F0E94A112CB5FF5CFA8
:10261000DF91CF911F910F91089525B130E2839FF3
:10262000C00111242F7D822B85B95F9887E090E04F
:1026300070E08F989B01082E02C0359527950A946B
:10264000E2F720FF02C02E9A01C02E988F9A0197C0
:1026500080F75F9A0895CF93C82F579A249A259AA6
:10266000269A879A2C985F9A2C9A61E280E00E94C1
:102670000D136C2F606880E00E940D1364E080E011
:102680000E940D1363E180E00E940D136CE080E076
:102690000E940D1360E280E00E940D136CE080E068
:1026A0000E940D1360E480E00E940D1360E880E05A
:1026B000CF910C940D13CF93DF93C8EFD1E060E07E
:1026C00081E00E940D132197D1F7DF91CF910895FA
:1026D000CF93C82F606480E00E940D136C2F606858
:1026E00080E0CF910C940D13AF92BF92CF92EF92F6
:1026F0000F931F93FC014083518362837383048390
:10270000158326833783E08AC18AB48AA38A81E04D
:10271000828B10861186128613861486158616867D
:1027200017861F910F91EF90CF90BF90AF900895B3
:102730006F927F929F92AF92BF92CF92DF92EF9271
:10274000FF920F931F93CF93DF9300D000D0CDB7AC
:10275000DEB7FC012289222309F475C03C0160899F
:1027600070E080E090E00E944C1520E030E040E016
:102770005EE30E9453160E949A140E941E15962E24
:10278000A12CF3018189A81608F05DC0A99C600105
:102790001124B12CEE24D7FCE094FE2CF3018089A7
:1027A000B81608F04EC00B2D10E0B801882777FD51
:1027B0008095982F0E944C1520E030E040E05EE3C9
:1027C0000E9453160E9487159B01AC01C701B601F8
:1027D00029833A834C835B830E944C1529813A817B
:1027E0004C815B810E9436140E941915F3012389E4
:1027F0003489F901E60FF71F408150E000951095EC
:102800000770112702C0559547950A95E2F7417068
:10281000F30164817581868197814C830E941E1526
:102820001A2D160FF30160817181828193810E94BC
:102830001E15862F4C81612F8B0D0E943E11B39483
:10284000ADCFA3949ECF0F900F900F900F90DF917C
:10285000CF911F910F91FF90EF90DF90CF90BF909D
:10286000AF909F907F906F9008955058BB27AA27F4
:102870000ED0C4C1B5D130F0BAD120F031F49F3FB1
:1028800011F41EF4AAC10EF4E095E7FB77C1E92F1D
:10289000C6D180F3BA17620773078407950718F04B
:1028A00071F49EF5F5C10EF4E0950B2EBA2FA02D14
:1028B0000B01B90190010C01CA01A0011124FF27ED
:1028C000591B99F0593F50F4503E68F11A16F040E8
:1028D000A22F232F342F4427585FF3CF46953795E7
:1028E0002795A795F0405395C9F77EF41F16BA0BAC
:1028F000620B730B840BBAF09150A1F0FF0FBB1F5A
:10290000661F771F881FC2F70EC0BA0F621F731FA2
:10291000841F48F4879577956795B795F7959E3FFF
:1029200008F0B3CF9395880F08F09927EE0F97958D
:102930008795089596D180F09F3740F491110EF459
:10294000A8C160E070E080E89FE3089526F01B16C0
:10295000611D711D811D18C132C1ECD008F481E0E8
:1029600008950CD04BC143D140F03AD130F021F45E
:102970005F3F19F003C151118CC12FC150D198F3A1
:102980009923C9F35523B1F3951B550BBB27AA27F0
:1029900062177307840738F09F5F5F4F220F331F62
:1029A000441FAA1FA9F333D00E2E3AF0E0E830D02E
:1029B00091505040E695001CCAF729D0FE2F27D031
:1029C000660F771F881FBB1F261737074807AB07FF
:1029D000B0E809F0BB0B802DBF01FF2793585F4F74
:1029E0002AF09E3F510568F0C9C053C15F3FECF328
:1029F000983EDCF3869577956795B795F7959F5F39
:102A0000C9F7880F911D9695879597F90895E1E08C
:102A1000660F771F881FBB1F621773078407BA07EB
:102A200020F0621B730B840BBA0BEE1F88F7E09546
:102A3000089504D06894B1112CC10895F8D088F09D
:102A40009F5790F0B92F9927B751A0F0D1F0660F9A
:102A5000771F881F991F1AF0BA95C9F712C0B130B5
:102A600081F016D1B1E0089513C1672F782F882720
:102A7000B85F39F0B93FCCF3869577956795B395F4
:102A8000D9F73EF490958095709561957F4F8F4F63
:102A90009F4F0895E89409C097FB3EF49095809568
:102AA000709561957F4F8F4F9F4F9923A9F0F92F14
:102AB00096E9BB279395F695879577956795B79592
:102AC000F111F8CFFAF4BB0F11F460FF1BC06F5F78
:102AD0007F4F8F4F9F4F16C0882311F096E911C08A
:102AE000772321F09EE8872F762F05C0662371F0AB
:102AF00096E8862F70E060E02AF09A95660F771FBF
:102B0000881FDAF7880F9695879597F90895A9D0C9
:102B100080F09F3740F491110EF0BBC060E070E090
:102B200080E89FEB089526F41B16611D711D811D21
:102B30002BC045C0990F0008550FAA0BE0E8FEEF27
:102B400016161706E807F907C0F012161306E40771
:102B5000F50798F0621B730B840B950B39F40A266A
:102B600061F0232B242B252B21F408950A2609F448
:102B7000A140A6958FEF811D811D089597F99F674C
:102B800080E870E060E00895882371F4772321F0F5
:102B90009850872B762F07C0662311F499270DC014
:102BA0009051862B70E060E02AF09A95660F771FAF
:102BB000881FDAF7880F9695879597F908959F3FB4
:102BC00031F0915020F4879577956795B795880FE8
:102BD000911D9695879597F908959FEF80EC08953C
:102BE00000240A94161617061806090608950024EC
:102BF0000A9412161306140605060895092E039466
:102C0000000C11F4882352F0BB0F40F4BF2B11F4D9
:102C100060FF04C06F5F7F4F8F4F9F4F089557FD38
:102C20009058440F551F59F05F3F71F04795880F3A
:102C300097FB991F61F09F3F79F0879508951216D1
:102C400013061406551FF2CF4695F1DF08C016167D
:102C500017061806991FF1CF86957105610508942E
:102C60000895E5DFA0F0BEE7B91788F4BB279F38C9
:102C700060F41616B11D672F782F8827985FF7CF5D
:102C8000869577956795B11D93959639C8F3089504
:102C9000E894BB2766277727CB0197F908954ADF89
:102CA00008F48FEF08950BD0A9CF9ADF28F09FDFAB
:102CB00018F0952309F062CF90CF1124EACFAFDF4F
:102CC000A0F3959FD1F3950F50E0551F629FF0013F
:102CD000729FBB27F00DB11D639FAA27F00DB11D98
:102CE000AA1F649F6627B00DA11D661F829F222721
:102CF000B00DA11D621F739FB00DA11D621F839FA8
:102D0000A00D611D221F749F3327A00D611D231F7D
:102D1000849F600D211D822F762F6A2F11249F57CB
:102D200050408AF0E1F088234AF0EE0FFF1FBB1FEE
:102D3000661F771F881F91505040A9F79E3F51058D
:102D400070F01CCFA6CF5F3FECF3983EDCF3869586
:102D500077956795B795F795E7959F5FC1F7FE2B38
:102D6000880F911D9695879597F90895A29FB001B8
:102D7000B39FC001A39F700D811D1124911DB29FAF
:102D8000700D811D1124911D089597FB072E16F4D7
:102D9000009407D077FD09D00E94101707FC05D0DA
:102DA0003EF4909581959F4F0895709561957F4F62
:102DB00008952F923F924F925F926F927F928F92DF
:102DC0009F92AF92BF92CF92DF92EF92FF920F93BA
:102DD0001F93CF93DF93CDB7DEB7CA1BDB0B0FB6C4
:102DE000F894DEBF0FBECDBF09942A883988488881
:102DF0005F846E847D848C849B84AA84B984C88417
:102E0000DF80EE80FD800C811B81AA81B981CE0F0D
:102E1000D11D0FB6F894DEBF0FBECDBFED010895F2
:102E2000AA1BBB1B51E107C0AA1FBB1FA617B707F0
:102E300010F0A61BB70B881F991F5A95A9F780950C
:102E40009095BC01CD0108958F929F92AF92BF9251
:102E5000CF92DF92EF92FF92CF93DF93EC016881E4
:102E600079818A819B81611571058105910521F424
:102E700064E279ED8BE597E02DE133EF41E050E03E
:102E80000E943A1949015A019B01AC01A7EAB1E439
:102E90000E9427196B017C01ACEEB4EFA5019401EF
:102EA0000E943519DC01CB018C0D9D1DAE1DBF1D8F
:102EB000B7FF03C00197A109B04888839983AA830B
:102EC000BB839F77DF91CF91FF90EF90DF90CF9002
:102ED000BF90AF909F908F9008950E9424170895FF
:102EE00084E191E00E9424170895A0E0B0E080936F
:102EF000140190931501A0931601B0931701089542
:102F0000283008F027E03327DA01990F311D87FDBB
:102F1000916000966105710539F432602E5F3D9332
:102F200030E32A95E1F708959F3F30F0803871052E
:102F3000610509F03C5F3C5F3D93913008F080688B
:102F4000911DDF93CF931F930F93FF92EF92192F51
:102F5000987F9695E92F96959695E90FFF27E2536E
:102F6000FB4F99273327EE24FF24A701E7010590A3
:102F70000894079428F4360FE71EF81E491F511DC8
:102F8000660F771F881F991F0694A1F70590079475
:102F900028F4E70EF81E491F561FC11D770F881F22
:102FA000991F661F0694A1F70590079428F4F80E60
:102FB000491F561FC71FD11D880F991F661F771FF6
:102FC0000694A1F70590079420F4490F561FC71FD8
:102FD000D81F990F661F771F881F0694A9F7849141
:102FE0001095177041F0D695C79557954795F7946A
:102FF000E7941A95C1F7E4E7F4E068941590159109
:1030000035916591959105907FE27395E118F10AEC
:10301000430B560BC90BD009C0F7E10CF11E431F3F
:10302000561FC91FD01D7EF4703311F48A95E6CF68
:10303000E894015030F0080F0AF40027021708F452
:10304000202F2395022F7A3328F079E37D932A9558
:10305000E9F710C07D932A9589F6069497956795B0
:10306000379517951794E118F10A430B560BC90BC6
:10307000D00998F023957E9173957A3308F070E328
:103080007C932013B8F77E9170617D9330F0839527
:1030900071E37D9370E32A95E1F71124EF90FF909F
:1030A0000F911F91CF91DF91992787FD90950895FA
:1030B000FC010590615070400110D8F78095909503
:1030C0008E0F9F1F0895FC01615070400190011008
:1030D000D8F7809590958E0F9F1F08950F931F939B
:1030E000CF93DF93FB01238121FD03C08FEF9FEF7F
:1030F00028C022FF16C0468157812481358142179E
:10310000530744F4A081B1819D012F5F3F4F31836C
:1031100020838C93268137812F5F3F4F378326830F
:1031200010C0EB01092F182F0084F185E02D0995BF
:10313000892BE1F68E819F8101969F838E83812F5B
:10314000902FDF91CF911F910F910895AEE0B0E0E5
:10315000ECEAF8E10C94E7160D891E8986E08C8371
:103160001A8309838FEF9FE79E838D83AE01475EAD
:103170005F4F6F89788DCE0101960E94A70D2F8138
:103180003885F801E20FF31F10822E96E4E00C94CC
:103190000317FA01AA27283051F1203181F1E89470
:1031A0006F936E7F6E5F7F4F8F4F9F4FAF4FB1E03A
:1031B0003ED0B4E03CD0670F781F891F9A1FA11D35
:1031C000680F791F8A1F911DA11D6A0F711D811D36
:1031D000911DA11D20D009F468943F912AE0269FFB
:1031E00011243019305D3193DEF6CF010895462F5A
:1031F0004770405D4193B3E00FD0C9F7F6CF462F3B
:103200004F70405D4A3318F0495D31FD40524193A3
:1032100002D0A9F7EACFB4E0A69597958795779560
:103220006795BA95C9F700976105710508959B01E7
:10323000AC010A2E06945795479537952795BA9570
:10324000C9F7620F731F841F951FA01D08950E9468
:10325000B616A59F900DB49F900DA49F800D911D53
:1032600011240895B7FF0C9427190E942719821B77
:10327000930B0895052E97FB1EF400940E9451199C
:1032800057FD07D00E94591907FC03D04EF40C9447
:10329000511950954095309521953F4F4F4F5F4FB5
:1032A000089590958095709561957F4F8F4F9F4FB2
:1032B0000895A1E21A2EAA1BBB1BFD010DC0AA1F77
:1032C000BB1FEE1FFF1FA217B307E407F50720F08F
:1032D000A21BB30BE40BF50B661F771F881F991F0A
:1032E0001A9469F760957095809590959B01AC0153
:0A32F000BD01CF010895F894FFCF4F
:1032FA0080803CDB7E6699DBE700C07F44010003E7
:10330A00002564000100000057656C636F6D65005D
:10331A004C6576656C3A0025640053636F72653AB2
:10332A00004C6976653A004C763A0047616D652033
:06333A006F7665722100B0
:040000050080014C2A
:00000001FF
